{
  "_format": "hh-sol-artifact-1",
  "contractName": "Token",
  "sourceName": "contracts/Token.sol",
  "abi": [
    {
      "inputs": [],
      "stateMutability": "nonpayable",
      "type": "constructor"
    },
    {
      "anonymous": false,
      "inputs": [
        {
          "indexed": false,
          "internalType": "address",
          "name": "recipient",
          "type": "address"
        },
        {
          "indexed": false,
          "internalType": "uint256",
          "name": "amount",
          "type": "uint256"
        }
      ],
      "name": "Mint",
      "type": "event"
    },
    {
      "anonymous": false,
      "inputs": [
        {
          "indexed": false,
          "internalType": "address",
          "name": "owner",
          "type": "address"
        },
        {
          "indexed": false,
          "internalType": "address",
          "name": "recipient",
          "type": "address"
        },
        {
          "indexed": false,
          "internalType": "uint256",
          "name": "amount",
          "type": "uint256"
        }
      ],
      "name": "Transfer",
      "type": "event"
    },
    {
      "inputs": [
        {
          "internalType": "address",
          "name": "account",
          "type": "address"
        }
      ],
      "name": "balanceOf",
      "outputs": [
        {
          "internalType": "uint256",
          "name": "",
          "type": "uint256"
        }
      ],
      "stateMutability": "view",
      "type": "function"
    },
    {
      "inputs": [],
      "name": "mint",
      "outputs": [
        {
          "internalType": "bool",
          "name": "",
          "type": "bool"
        }
      ],
      "stateMutability": "nonpayable",
      "type": "function"
    },
    {
      "inputs": [],
      "name": "totalSupply",
      "outputs": [
        {
          "internalType": "uint256",
          "name": "",
          "type": "uint256"
        }
      ],
      "stateMutability": "view",
      "type": "function"
    },
    {
      "inputs": [
        {
          "internalType": "address",
          "name": "recipient",
          "type": "address"
        },
        {
          "internalType": "uint256",
          "name": "amount",
          "type": "uint256"
        }
      ],
      "name": "transfer",
      "outputs": [
        {
          "internalType": "bool",
          "name": "",
          "type": "bool"
        }
      ],
      "stateMutability": "nonpayable",
      "type": "function"
    }
  ],
  "bytecode": "0x608060405234801561001057600080fd5b5033600260006101000a81548173ffffffffffffffffffffffffffffffffffffffff021916908373ffffffffffffffffffffffffffffffffffffffff1602179055506000683635c9adc5dea00000905080600080600260009054906101000a900473ffffffffffffffffffffffffffffffffffffffff1673ffffffffffffffffffffffffffffffffffffffff1673ffffffffffffffffffffffffffffffffffffffff16815260200190815260200160002081905550806001546100d391906100df565b6001819055505061016e565b60006100ea82610135565b91506100f583610135565b9250827fffffffffffffffffffffffffffffffffffffffffffffffffffffffffffffffff0382111561012a5761012961013f565b5b828201905092915050565b6000819050919050565b7f4e487b7100000000000000000000000000000000000000000000000000000000600052601160045260246000fd5b6105db8061017d6000396000f3fe608060405234801561001057600080fd5b506004361061004c5760003560e01c80631249c58b1461005157806318160ddd1461006f57806370a082311461008d578063a9059cbb146100bd575b600080fd5b6100596100ed565b6040516100669190610474565b60405180910390f35b61007761010a565b604051610084919061048f565b60405180910390f35b6100a760048036038101906100a291906103ab565b610114565b6040516100b4919061048f565b60405180910390f35b6100d760048036038101906100d291906103d4565b61015c565b6040516100e49190610474565b60405180910390f35b6000610103600033678ac7230489e800006101f8565b6001905090565b6000600154905090565b60008060008373ffffffffffffffffffffffffffffffffffffffff1673ffffffffffffffffffffffffffffffffffffffff168152602001908152602001600020549050919050565b6000816000803373ffffffffffffffffffffffffffffffffffffffff1673ffffffffffffffffffffffffffffffffffffffff1681526020019081526020016000205410156101a957600080fd5b600073ffffffffffffffffffffffffffffffffffffffff163373ffffffffffffffffffffffffffffffffffffffff1614156101e357600080fd5b6101ee3384846101f8565b6001905092915050565b600073ffffffffffffffffffffffffffffffffffffffff168273ffffffffffffffffffffffffffffffffffffffff16141561023257600080fd5b806000808573ffffffffffffffffffffffffffffffffffffffff1673ffffffffffffffffffffffffffffffffffffffff16815260200190815260200160002054036000808573ffffffffffffffffffffffffffffffffffffffff1673ffffffffffffffffffffffffffffffffffffffff16815260200190815260200160002081905550806000808473ffffffffffffffffffffffffffffffffffffffff1673ffffffffffffffffffffffffffffffffffffffff168152602001908152602001600020546102ff91906104aa565b6000808473ffffffffffffffffffffffffffffffffffffffff1673ffffffffffffffffffffffffffffffffffffffff168152602001908152602001600020819055507fddf252ad1be2c89b69c2b068fc378daa952ba7f163c4a11628f55a4df523b3ef8383836040516103749392919061043d565b60405180910390a1505050565b60008135905061039081610577565b92915050565b6000813590506103a58161058e565b92915050565b6000602082840312156103bd57600080fd5b60006103cb84828501610381565b91505092915050565b600080604083850312156103e757600080fd5b60006103f585828601610381565b925050602061040685828601610396565b9150509250929050565b61041981610500565b82525050565b61042881610512565b82525050565b6104378161053e565b82525050565b60006060820190506104526000830186610410565b61045f6020830185610410565b61046c604083018461042e565b949350505050565b6000602082019050610489600083018461041f565b92915050565b60006020820190506104a4600083018461042e565b92915050565b60006104b58261053e565b91506104c08361053e565b9250827fffffffffffffffffffffffffffffffffffffffffffffffffffffffffffffffff038211156104f5576104f4610548565b5b828201905092915050565b600061050b8261051e565b9050919050565b60008115159050919050565b600073ffffffffffffffffffffffffffffffffffffffff82169050919050565b6000819050919050565b7f4e487b7100000000000000000000000000000000000000000000000000000000600052601160045260246000fd5b61058081610500565b811461058b57600080fd5b50565b6105978161053e565b81146105a257600080fd5b5056fea2646970667358221220a45cfc9e9b5af37f5f938697ec5bf07f0c436fd39a78e668bbc07b1b9621628a64736f6c63430008040033",
  "linkReferences": {},
  "deployedLinkReferences": {}
}